{
  "contractName": "MultiSig",
  "abi": [
    {
      "constant": true,
      "inputs": [
        {
          "name": "",
          "type": "address"
        }
      ],
      "name": "owners",
      "outputs": [
        {
          "name": "",
          "type": "bool"
        }
      ],
      "payable": false,
      "stateMutability": "view",
      "type": "function"
    },
    {
      "constant": true,
      "inputs": [
        {
          "name": "",
          "type": "uint256"
        }
      ],
      "name": "transactions",
      "outputs": [
        {
          "name": "recipient",
          "type": "address"
        },
        {
          "name": "value",
          "type": "uint256"
        },
        {
          "name": "sent",
          "type": "bool"
        }
      ],
      "payable": false,
      "stateMutability": "view",
      "type": "function"
    },
    {
      "constant": true,
      "inputs": [],
      "name": "numOfTransactions",
      "outputs": [
        {
          "name": "",
          "type": "uint256"
        }
      ],
      "payable": false,
      "stateMutability": "view",
      "type": "function"
    },
    {
      "inputs": [
        {
          "name": "_owners",
          "type": "address[]"
        }
      ],
      "payable": false,
      "stateMutability": "nonpayable",
      "type": "constructor"
    },
    {
      "payable": true,
      "stateMutability": "payable",
      "type": "fallback"
    },
    {
      "anonymous": false,
      "inputs": [
        {
          "indexed": true,
          "name": "sender",
          "type": "address"
        },
        {
          "indexed": false,
          "name": "value",
          "type": "uint256"
        }
      ],
      "name": "Deposit",
      "type": "event"
    },
    {
      "anonymous": false,
      "inputs": [
        {
          "indexed": false,
          "name": "transactionId",
          "type": "uint256"
        }
      ],
      "name": "TransactionProposal",
      "type": "event"
    },
    {
      "anonymous": false,
      "inputs": [
        {
          "indexed": false,
          "name": "transactionId",
          "type": "uint256"
        }
      ],
      "name": "TransactionConfirmed",
      "type": "event"
    },
    {
      "constant": false,
      "inputs": [
        {
          "name": "_recipient",
          "type": "address"
        },
        {
          "name": "_value",
          "type": "uint256"
        }
      ],
      "name": "proposeTransaction",
      "outputs": [],
      "payable": false,
      "stateMutability": "nonpayable",
      "type": "function"
    },
    {
      "constant": false,
      "inputs": [
        {
          "name": "_transactionId",
          "type": "uint256"
        }
      ],
      "name": "signAndSendTransaction",
      "outputs": [],
      "payable": false,
      "stateMutability": "nonpayable",
      "type": "function"
    },
    {
      "constant": true,
      "inputs": [
        {
          "name": "_transactionId",
          "type": "uint256"
        }
      ],
      "name": "getSignaturesForTransaction",
      "outputs": [
        {
          "name": "",
          "type": "address[]"
        }
      ],
      "payable": false,
      "stateMutability": "view",
      "type": "function"
    },
    {
      "constant": true,
      "inputs": [],
      "name": "getBalanceInWei",
      "outputs": [
        {
          "name": "",
          "type": "uint256"
        }
      ],
      "payable": false,
      "stateMutability": "view",
      "type": "function"
    }
  ],
  "bytecode": "0x608060405234801561001057600080fd5b50604051610b7d380380610b7d833981018060405281019080805182019291905050506000815160038114151561004657600080fd5b6000600281905550600091505b825182101561014657600080848481518110151561006d57fe5b9060200190602002015173ffffffffffffffffffffffffffffffffffffffff1673ffffffffffffffffffffffffffffffffffffffff16815260200190815260200160002060009054906101000a900460ff161515156100cb57600080fd5b600160008085858151811015156100de57fe5b9060200190602002015173ffffffffffffffffffffffffffffffffffffffff1673ffffffffffffffffffffffffffffffffffffffff16815260200190815260200160002060006101000a81548160ff0219169083151502179055508180600101925050610053565b505050610a25806101586000396000f300608060405260043610610083576000357c0100000000000000000000000000000000000000000000000000000000900463ffffffff168063022914a7146100d357806318b95fbf1461012e57806360338ffe1461015957806391fbab1a146101865780639ace38c214610208578063d833280014610287578063f19a6682146102b2575b3373ffffffffffffffffffffffffffffffffffffffff167fe1fffcc4923d04b559f4d29a8bfc6cda04eb5b0d3c460751c2402c5c5cc9109c346040518082815260200191505060405180910390a2005b3480156100df57600080fd5b50610114600480360381019080803573ffffffffffffffffffffffffffffffffffffffff1690602001909291905050506102ff565b604051808215151515815260200191505060405180910390f35b34801561013a57600080fd5b5061014361031f565b6040518082815260200191505060405180910390f35b34801561016557600080fd5b5061018460048036038101908080359060200190929190505050610397565b005b34801561019257600080fd5b506101b16004803603810190808035906020019092919050505061059d565b6040518080602001828103825283818151815260200191508051906020019060200280838360005b838110156101f45780820151818401526020810190506101d9565b505050509050019250505060405180910390f35b34801561021457600080fd5b506102336004803603810190808035906020019092919050505061069a565b604051808473ffffffffffffffffffffffffffffffffffffffff1673ffffffffffffffffffffffffffffffffffffffff16815260200183815260200182151515158152602001935050505060405180910390f35b34801561029357600080fd5b5061029c6106f1565b6040518082815260200191505060405180910390f35b3480156102be57600080fd5b506102fd600480360381019080803573ffffffffffffffffffffffffffffffffffffffff169060200190929190803590602001909291905050506106f7565b005b60006020528060005260406000206000915054906101000a900460ff1681565b6000336000808273ffffffffffffffffffffffffffffffffffffffff1673ffffffffffffffffffffffffffffffffffffffff16815260200190815260200160002060009054906101000a900460ff16151561037957600080fd5b3073ffffffffffffffffffffffffffffffffffffffff163191505090565b336000808273ffffffffffffffffffffffffffffffffffffffff1673ffffffffffffffffffffffffffffffffffffffff16815260200190815260200160002060009054906101000a900460ff1615156103ef57600080fd5b81600015156001600083815260200190815260200160002060020160009054906101000a900460ff16151514151561042657600080fd5b600160008481526020019081526020016000206003013390806001815401808255809150509060018203906000526020600020016000909192909190916101000a81548173ffffffffffffffffffffffffffffffffffffffff021916908373ffffffffffffffffffffffffffffffffffffffff16021790555050600180600085815260200190815260200160002060020160006101000a81548160ff0219169083151502179055506001600084815260200190815260200160002060000160009054906101000a900473ffffffffffffffffffffffffffffffffffffffff1673ffffffffffffffffffffffffffffffffffffffff166108fc60016000868152602001908152602001600020600101549081150290604051600060405180830381858888f19350505050158015610560573d6000803e3d6000fd5b507fef524c298d730e7d5714dbe2fce9d4eca7de755a12628704719170afda39678b836040518082815260200191505060405180910390a1505050565b6060336000808273ffffffffffffffffffffffffffffffffffffffff1673ffffffffffffffffffffffffffffffffffffffff16815260200190815260200160002060009054906101000a900460ff1615156105f757600080fd5b6001600084815260200190815260200160002060030180548060200260200160405190810160405280929190818152602001828054801561068d57602002820191906000526020600020905b8160009054906101000a900473ffffffffffffffffffffffffffffffffffffffff1673ffffffffffffffffffffffffffffffffffffffff1681526020019060010190808311610643575b5050505050915050919050565b60016020528060005260406000206000915090508060000160009054906101000a900473ffffffffffffffffffffffffffffffffffffffff16908060010154908060020160009054906101000a900460ff16905083565b60025481565b336000808273ffffffffffffffffffffffffffffffffffffffff1673ffffffffffffffffffffffffffffffffffffffff16815260200190815260200160002060009054906101000a900460ff16151561074f57600080fd5b6080604051908101604052808473ffffffffffffffffffffffffffffffffffffffff16815260200183815260200160001515815260200160006040519080825280602002602001820160405280156107b65781602001602082028038833980820191505090505b5081525060016000600254815260200190815260200160002060008201518160000160006101000a81548173ffffffffffffffffffffffffffffffffffffffff021916908373ffffffffffffffffffffffffffffffffffffffff1602179055506020820151816001015560408201518160020160006101000a81548160ff021916908315150217905550606082015181600301908051906020019061085c92919061092c565b509050506001600060025481526020019081526020016000206003013390806001815401808255809150509060018203906000526020600020016000909192909190916101000a81548173ffffffffffffffffffffffffffffffffffffffff021916908373ffffffffffffffffffffffffffffffffffffffff160217905550507fee66a225336a77215dac1ba4364ba6ebc00978fe81423a24e2519e615bcfdf906002546040518082815260200191505060405180910390a1600260008154809291906001019190505550505050565b8280548282559060005260206000209081019282156109a5579160200282015b828111156109a45782518260006101000a81548173ffffffffffffffffffffffffffffffffffffffff021916908373ffffffffffffffffffffffffffffffffffffffff1602179055509160200191906001019061094c565b5b5090506109b291906109b6565b5090565b6109f691905b808211156109f257600081816101000a81549073ffffffffffffffffffffffffffffffffffffffff0219169055506001016109bc565b5090565b905600a165627a7a72305820488f80d31cceed50c47a739fc39950455d8f46d3be5e46889eaaab664081472e0029",
  "source": "pragma solidity 0.4.24;\n\ncontract MultiSig {\n  // Events\n  event Deposit(address indexed sender, uint value);\n  event TransactionProposal(uint transactionId);\n  event TransactionConfirmed(uint transactionId);\n\n  // Storage Variables\n  mapping(address => bool) public owners;\n  mapping (uint => Transaction) public transactions;\n  uint public numOfTransactions;\n  struct Transaction {\n    address recipient;\n    uint value;\n    bool sent;\n    address[] signatures;\n  }\n\n  modifier isValidWallet (uint _amtOfOwners) {\n    require(_amtOfOwners == 3);\n    _;\n  }\n\n  modifier hasTwoSigs (uint _amtOfSigs) {\n    require(_amtOfSigs == 2);\n    _;\n  }\n\n  modifier isOwner (address addrOfSender) {\n    require(owners[addrOfSender]);\n    _;\n  }\n\n  modifier isValidTransaction(uint _transactionId) {\n    require(transactions[_transactionId].sent == false);\n    _;\n  }\n\n  constructor (address[] _owners)\n  public\n  isValidWallet(_owners.length){\n    numOfTransactions = 0;\n\n    for (uint i=0; i<_owners.length; i++) {\n      require(!owners[_owners[i]]);\n      owners[_owners[i]] = true;\n    }\n  }\n\n  // Default Fallback Function\n  function () public payable {\n    Deposit(msg.sender, msg.value);\n  }\n\n  // External Functions\n  // doesn't check to see if contract has enough to send amount\n  function proposeTransaction (address _recipient, uint _value)\n  external\n  isOwner(msg.sender)\n  {\n    transactions[numOfTransactions] = Transaction({\n      recipient: _recipient,\n      value: _value,\n      sent: false,\n      signatures: new address[](0)\n    });\n    transactions[numOfTransactions].signatures.push(msg.sender);\n    TransactionProposal(numOfTransactions);\n    numOfTransactions++;\n  }\n\n  function signAndSendTransaction (uint _transactionId)\n  external\n  isOwner(msg.sender)\n  isValidTransaction(_transactionId)\n  {\n    transactions[_transactionId].signatures.push(msg.sender);\n    transactions[_transactionId].sent = true;\n    transactions[_transactionId].recipient.transfer(transactions[_transactionId].value);\n    TransactionConfirmed(_transactionId);\n  }\n\n  // View Functions\n  function getSignaturesForTransaction (uint _transactionId)\n  external\n  view\n  isOwner(msg.sender)\n  returns (address []) {\n    return transactions[_transactionId].signatures;\n  }\n\n  function getBalanceInWei ()\n  external\n  view\n  isOwner(msg.sender)\n  returns (uint) {\n    return address(this).balance;\n  }\n\n  // to go in line with the push/pull security, i would rather have an address withdraw\n}",
  "sourcePath": "/Users/johnquiwa/Documents/projects/multisig/contracts/MultiSig.sol",
  "compiler": {
    "name": "solc",
    "version": "0.4.24+commit.e67f0147.Emscripten.clang"
  },
  "schemaVersion": "2.0.1",
  "updatedAt": "2018-07-23T00:00:51.373Z"
}